:100000009701002093814167170500001305851BA8
:1000100013653500731055301385C1987310753012
:100020001711002013014165177500001305059095
:100030009385C1981386010063FAC50083220500E9
:1000400023A0550011059105E3EAC5FE13850100C3
:1000500097250020938505E36377B50023200500ED
:100060001105E36DB5FEEF30D030EF209041EF4049
:10007000C07901A0000000000000000000000000A6
:10008000797116C21AC4F3221034732320341AD49F
:1000900016D67360043006C01EC62AC82ECA32CCDB
:1000A00036CE3AD03ED21373F33F0A039722002094
:1000B000938242BC9A9283A30200829373700430AD
:1000C000A25513F5F53F37E600E0130606102A9611
:1000D0008306060005471347F7FFB377D7002300D1
:1000E000F600B72200009382028873A0023073905A
:1000F0002534B25273901234824092422243B2436A
:100100004245D2456246F246025792574561730016
:1001100020300100711116C0F322203463C402069E
:10012000110197120020938222759382C2FB23A0B3
:10013000120023A2220023A4320023A6420023AAF5
:10014000620023AC720023AE820023A0920223A29D
:10015000A20223A4B20223A6C20223A8D20223AA87
:10016000E20223ACF2027325103423AEA2027325FF
:10017000003023A0A20416858322C1FF2A8116C85D
:10018000EF301025824211016FF09FEF1300000045
:100190001300000013000000130000001300000013
:1001A0001300000013000000130000001300000003
:1001B00013000000130000001300000013000000F3
:1001C00091BF0000000000000000000000000000DF
:1001D000000000000000000000000000000000001F
:1001E000000000000000000000000000000000000F
:1001F00000000000611122C226C0AE87639D062068
:10020000B6833283AA82975600009386A65863FD70
:10021000C50A41676373E60A1307F00F3337C70057
:100220000E07B353E6009E9683C6060036979306E4
:100230000002998E91CAB395D7003357E500331366
:10024000D600D98DB312D5001355030133F7A5029B
:1002500013160301418293D60201B3D5A5024207CA
:10026000D98EB307B6022E8763FCF6009A961387E1
:10027000F5FF63E7660063F5F6001387E5FF9A96DE
:100280009D8EB3F7A602C20293D20201B3D6A60294
:10029000C207B3E257003306D602368563FBC200BD
:1002A0009A921385F6FF63E6620063F4C200138539
:1002B000E6FF4207498F81455DA8B703000141472A
:1002C000E36176F66147B1BF01E605473353C702E4
:1002D00041676373E30A1307F00F63736700A14379
:1002E00033577300BA9603C706001E9793030002A4
:1002F000B383E34063990308B3876740854513548C
:1003000003019313030193D3030193D6020133F73F
:100310008702B3D787024207D98E3386F3023E871E
:1003200063FCC6009A961387F7FF63E7660063F5E0
:10033000C6001387E7FF9A96918EB3F78602C20232
:1003400093D20201B3D68602C207B3E25700B38349
:10035000D302368563FB72009A921385F6FF63E63B
:10036000620063F472001385E6FF4207498F3A8505
:10037000124482442101828037070001C143E361B6
:10038000E3F6E143B1BF33137300B3D6E7009355EF
:100390000301B3977700B3127500B3D3B602335796
:1003A000E5003366F70093170301C1831355060177
:1003B00033F7B602B38677024207498F1E85637C06
:1003C000D7001A971385F3FF636767006375D7003B
:1003D0001385E3FF1A97B306D74033F7B602B3D6B7
:1003E000B6024207B383D70293170601C183D98FA0
:1003F000368763FC77009A971387F6FF63E76700F9
:1004000063F577001387E6FF9A9793150501B38785
:100410007740D98DEDB563E0D514416763FDE60201
:100420001307F00F3337D7000E0733D3E600975585
:100430000000938525369A9583C505002E97930570
:100440000002998D85E10547E3E3F6F23336C500F6
:100450001347160029BFB70500014147E3E7B6FC83
:100460006147E1B73353E600B396B600B366D300F5
:10047000B3D3E70013D40601B3F283023357E50088
:10048000B397B700D98F13970601418313D30701A0
:100490003316B600B3D38302C202B3E26200B304E0
:1004A00077021E8363FC9200B6921383F3FF63E727
:1004B000D20063F592001383E3FFB692B3829240B9
:1004C000B3F38202C207C183B3D28202C203B3E78D
:1004D000F30033075702968363FCE700B6979383D4
:1004E000F2FF63E7D70063F5E7009383E2FFB69777
:1004F000998F1317030133677700C1631383F3FFE9
:10050000B376670013540701337366004182B382E8
:100510006602330364023304C4023386C60293D6F0
:1005200002011A96B29663F366001E9413D6060172
:10053000329463E08702E39087D8C167FD17FD8E90
:10054000C206B3F2F2003315B50096968145E3700A
:10055000D5E27D178DB38145014711BD511122C4EC
:1005600026C2AA872E83639B061C36873284975641
:1005700000009386262263FBC50AC1626371560A96
:100580009302F00F63F3C2002147B352E600969640
:1005900083C20600930300021697B383E340638C83
:1005A0000300B39575003357E500331476003363C9
:1005B000B700B317750013560401B376C3021315C1
:1005C0000401418113D707013353C302C206558F7B
:1005D000330365026378670022976365870063735E
:1005E0006700229733076740B376C702C207C1830B
:1005F0003357C7023307E50213950601C98F63F825
:10060000E700A29763E5870063F3E700A297998F5D
:1006100033D5770081452244924431018280B7026C
:1006200000014147E36356F6614785B701E6054699
:100630003354860241666372C4081306F00F637375
:10064000860021473356E400B29683C20600930326
:1006500000021697B383E34063980306818D935697
:10066000040113150401418113D6070133F7D502A4
:10067000B3D5D5024207518FB305B5026378B700F1
:100680002297636587006373B7002297B305B7406D
:1006900033F7D502C207C183B3D5D502B305B5027E
:1006A00013150701C98F63F8B700A29763E58700A8
:1006B00063F3B700A2978D8FA1BF370600014147B2
:1006C000E362C4F86147BDBF33147400B3D6E500DC
:1006D000135604013357E500B3957500B362B700B4
:1006E00033F7C60293150401C181B317750013D502
:1006F0000201B3D6C6024207498FB386D50263789A
:10070000D7002297636587006373D7002297B306EB
:10071000D74033F7C602B3D6C6024207B386D50226
:1007200093950201C181D98D63F8D500A29563E547
:10073000850063F3D500A295958D15B7E3EDD5EC53
:10074000416763F5E6049303F00F33B7D3000E0758
:10075000B3D3E600975200009382C2039E9283C3F4
:10076000020093020002BA93B382724063970202BE
:1007700063E4B6006369C500B307C540958D3335A2
:10078000F5003383A5403E859A8571B5B702000117
:100790004147E3EF56FA614765BFB3577600B3961A
:1007A0005600DD8EB3D4750013D40601335775009F
:1007B000B317550033D584023EC0B3955500D98D8B
:1007C00013970601418333165600B3F78402B3042E
:1007D000A7021393070193D70501B367F3002A8398
:1007E00063FC9700B6971303F5FF63E7D70063F543
:1007F00097001303E5FFB697858F33F58702C2058F
:10080000C18133D487024205C98D33078702A2878D
:1008100063FCE500B6959307F4FF63E7D50063F545
:10082000E5009307E4FFB695420341643363F300A8
:100830003387E5409305F4FFB377B3009354060183
:1008400013530301F18D3385B702B305B302B387A8
:10085000970233039302AE9793540501A69763F36F
:10086000B700229393D507012E93C165FD15ED8F37
:10087000C2076D8D3E9563676700631D6700824701
:1008800063FAA7003306C5403335C500AA96330383
:10089000D34032858247330367403385A740B3B5E1
:1008A000A700B305B340B3977500335555005D8D70
:1008B000B3D555008DB3B7021000FD12311133F3DB
:1008C000B2000E039357D50122C626C413D44501A6
:1008D00093D4F501B3F5D20093D246011374F47F9B
:1008E000B3E7670093F2F27F1353D6018E0506C873
:1008F000FD82131735003363B3000E0633055440F1
:100900006396D4226351A00E63980202B366C300BB
:10091000638C06569305F5FF89E93A963337E6006E
:100920009A97BA9732870544B1A89306F07F631E61
:10093000D5001304F07F61AA9306F07F6309D418F1
:10094000B70680003363D300AA859306800363C78C
:10095000B608FD4663CFB604130500020D8DB3162D
:10096000A300B352B6003316A600B3E656003336E2
:10097000C000558E3353B3003A963E93B337E6002A
:100980009A9732879396870063D3061405049306DB
:10099000F07F630CD448370680FF7D167D8E93561A
:1009A0001700058B9317F601558F5D8F935716002F
:1009B00039AA938605FE93020002B356D30001457F
:1009C0006388550013050004B305B5403315B30023
:1009D000498E3336C000558E014379BF3366C3005C
:1009E0003336C000D5BF45C9B38582400DE4B3E6B8
:1009F000E700638406429386F5FF99E632979A975B
:100A00003336C700B29705B71305F07F639DA50085
:100A10009A87328739BF9306F07FE38BD2FEB70601
:100A20008000D58FAE869305800363C2D506FD4551
:100A300063CAD50213050002158DB353D700B395D1
:100A4000A7003317A700B3E575003337E0004D8FDB
:100A5000B3D6D7003297B38766003336C700B29754
:100A600016840DB7938506FE93030002B3D5B70035
:100A700001456388760013050004B306D54033951D
:100A8000D700498F3337E0004D8F8146E1B75D8F46
:100A90003337E000DDBF9305140093F6E57FA5E64C
:100AA000B3E6E70029E4638D0636B366C30085C26A
:100AB0003A963337E6009A97BA979396870032872B
:100AC00063D70600B70680FFFD16F58F05449376C1
:100AD0007700638E06349376F70011466389C63437
:100AE0009306470033B7E600BA97368789A68DD2BA
:100AF0003363C300E30F03E28144B70740000147BB
:100B00001304F07F2DA69306F07F638ED5303A96BE
:100B10003337E6009A97B386E7009397F60105828C
:100B200033E7C70093D716002E8455B76357A00C40
:100B300063910208B366C300638806349305F5FF2A
:100B400099E93306C7403337C700B3876740998FA9
:100B500032870544A9A09306F07FE30CD5DC930609
:100B6000800363C7B608FD4663CFB60413050002D1
:100B70000D8DB316A300B352B6003316A600B3E62C
:100B800056003336C000558E3353B3003306C7408A
:100B900033836740B337C700B307F3403287939678
:100BA0008700E3D606F2B7058000FD15FD8DBA82F9
:100BB0004DA29306F07FE30CD4F0B70680003363B8
:100BC000D300AA8569BF938605FE93020002B3563F
:100BD000D30001456388550013050004B305B540F3
:100BE0003315B300498E3336C000558E014379BFAB
:100BF0003366C3003336C000D5BF61C13385824040
:100C000015E8B3E5E700638305289305F5FF91E94F
:100C10003307E640B307F3403336E600918FB684DE
:100C20000DBF9303F07F631F75009A87328713040B
:100C3000F07F5DA09305F07FE389B2FEB7058000E9
:100C4000CD8FAA85130580036345B5067D45634CAA
:100C5000B50293030002B383B3403354B700339516
:100C6000770033177700418D3337E000498FB3D5D4
:100C7000B7003307E640B307B3403336E600918F41
:100C80001684B68429BF138505FE1304000233D5EC
:100C9000A70081436388850093030004B385B340B4
:100CA000B393B70033E7E3003337E000498F814562
:100CB000C9B75D8F3337E000DDBF9305140093F5AE
:100CC000E57FA5E533E5E700B365C30029E419E551
:100CD0006382051C9A873287B684D5BBE38905DE1B
:100CE0003305C740B332A700B3856740B38555408D
:100CF0009392850063DA02003307E640B307F340BE
:100D00003336E600918FC9BF3367B5006308071813
:100D1000AE872A876DBB19E5638405189A873287E9
:100D2000B68401B9E38705C0C1BBB302C740333500
:100D30005700B3856740898D13958500635D05066F
:100D4000B302E640B307F34033365600B385C740DD
:100D5000B684A5C92E8516C22EC0EF106044824508
:100D60009242930685FFFD4763C7D70693070002AB
:100D7000958FB395D500B3D7F200DD8D3397D200B0
:100D800063C786083384864013061400FD4763CA90
:100D9000C70413050002118DB357C700B396A50011
:100DA000DD8EB317A700B337F00033E7F600B3D7F3
:100DB000C500014429BB33E7B20041FF814701442C
:100DC000E1A816852EC216C0EF10803D130505025E
:100DD0009245824279B7930585FDB395B2000147EC
:100DE00045B705149307000233D485008142630898
:100DF000F60093020004B382C240B3925500B36779
:100E00005700B337F0003367F40081475DB7B70789
:100E100080FFFD17158CED8F5DB99A87328729B356
:100E20009A8732876DB11304F07F8147014793960B
:100E3000870063DB060005049306F07F6307D40692
:100E4000B70680FFFD16F58F1395D7010D83930626
:100E5000F07F498F8D836319D4005D8F814709C767
:100E6000B707080001478144B2071374F47F5204A6
:100E7000B183C18FC2403244FE04B3E697003A8585
:100E8000A244B685510182802A8491B19A87328723
:100E90002A8499B581470147814451BF8147EDBFFD
:100EA00001478144B7074000A1B98147014769BFA5
:100EB0001301C1FD2A872A8393D7F50113D5450174
:100EC00026CC06D09394C50022CE1375F57F3EC480
:100ED000B18041C99305F07F6307B50E9397340045
:100EE0001354D7015D8CB70780005D8C1313370056
:100EF000930415C0814313D5460113D7F60193928D
:100F0000C6001375F57F3AC6B28793D2C20069CD89
:100F10001307F07F6304E5141357D6018E02B36202
:100F200057003707800033E7E200931736001305B8
:100F300015C08146B24522462D8E32C03386A4406C
:100F400032C213962300558E7D16B94563E9C5124A
:100F5000974500009385857C0A062E961042B2952F
:100F6000828533E4E40025C836C632C28DCC26859E
:100F70003AC0EF10E02202471246B246930555FFF1
:100F80007143634CB3027544130385FF0D8CB39713
:100F90006400335487005D8C331367009305D0C021
:100FA000B384A54081BF3A853AC0EF10601F130596
:100FB0000502B24612460247D1B7130485FD331429
:100FC00087000143E1BF33E4E40011C826848D4368
:100FD0009304F07F0DB701438144854329BF01434A
:100FE0009304F07F894301BF33E7C20041C36383A9
:100FF0000204168532CA1EC81AC216C0EF10401A63
:1010000082421243C2435246930655FFF14763C1E1
:10101000D7047547930785FF158FB392F2003357B6
:10102000E60033675700B317F6009306D0C0338548
:10103000A64001B7328516CA1EC81AC232C0EF10C8
:10104000201613050502D242C243124302466DBF69
:10105000930285FD331756008147C1BF33E7C200B5
:1010600011CB16871305F07F8D46E9B58147014501
:101070008546C9B581471305F07F894665BD63661E
:1010800087006315E42C6363F32C9315F4019356E6
:1010900013001316F301058033E3D5009312870084
:1010A00013D78701B362570093D4020133579402D8
:1010B0009396870093970201C1833EC49355030121
:1010C00033749402B387E70242044D8CBA85637C83
:1010D000F40016949305F7FF636754006375F400FA
:1010E0009305E7FF1694B307F44033D5970213979F
:1010F00002014183420313530301B3F79702AA830A
:101100003307A702C2073363F300637CE30016933F
:101110009303F5FF636753006375E3009303E5FFF3
:101120001693C2054164B3E575009307F4FF33F5E8
:10113000F5003303E340F58F13D70501B303F50240
:101140003EC4B307F7023EC693D706013385A70214
:101150003307F702B2473E9593D70301AA9732456A
:1011600063F3A700229713D407013A9441677D17D0
:10117000F98FC207B3F3E300BE93636783002E8742
:10118000631E8302637C76023696B337D600969749
:101190003E931387F5FF63E6620063916202636F1B
:1011A000D60063668300631B64006379760036961D
:1011B000B337D60096971387E5FF3E93B303764087
:1011C00033038340333676003306C340FD576382D2
:1011D000C2103355960293970201C18393D5030140
:1011E00033769602B387A70242064D8EAA85637CAA
:1011F000F60016969305F5FF636756006375F600D3
:101200009305E5FF16961D8E3353960293970201C0
:10121000C183C20393D30301337696021A843385C4
:1012200067029317060133E6F300637CA600169667
:101230001304F3FF636756006375A6001304E3FF0E
:10124000169693970501C18F2244098E224593D3A8
:1012500007019395070133838302C18113D40601EB
:101260003385A502B305B402B30374029A951354EF
:101270000501A29563F4650041639A9313D30501B8
:101280009A9341637D13B3F56500C205337565001C
:101290002E95636576006312761A05CD16969385B2
:1012A000F7FF63615602636676006317761863FD85
:1012B000A6009385E7FF93971600B3B6D700B692C2
:1012C0001696BE8663157600AE876304D50093E755
:1012D000150092461386F63F6359C00A93F67700CD
:1012E00081CE93F6F70091456388B6009386470058
:1012F000B3B7F6003E97B6879316770063D906001A
:10130000B70600FFFD16758F9246138606409306BA
:10131000E07F63CAC6108D839316D701D58F935291
:10132000370002479376F67FB20282507244D206AB
:1013300093D2C2001316F701B3E2D20033E7C20022
:10134000E2443E85BA8513014102828092460146FD
:10135000FD1636C2A1B3A24722879E863EC09A8759
:1013600009466382C60C0D466388C60A0546E392A9
:10137000C6F6814281479DA8324632C0D5B73707AD
:101380000800814702C08D46E1BF8542B382C2405A
:1013900093068003E3CF56FCFD4663CB560492468A
:1013A00033D65700B35257009385E641B316B700C2
:1013B000B397B700D18EB337F000D58F13F777000E
:1013C00001CF13F7F70091466308D7001387470052
:1013D000B337F700BE92BA8713978200634A0704B7
:1013E0001397D2018D83D98F93D23200014615BF56
:1013F0008556918E13060002B356D7008145638748
:10140000C20012469305E643B315B700CD8FB3373C
:10141000F000D58F81425DB7B702080081471306FF
:10142000F07F02C0FDBD814281471306F07FD5BD2C
:10143000814281470546F5B5AE87BE8549BDB707F0
:101440001000FD17511133F3B70013D74501FD818B
:1014500022C426C2AA822A842EC01377F77F93D58E
:1014600046011305F07FF58FB28493F5F57FFD8279
:10147000631AA700B363530005456399030263979A
:10148000E50219A06395A5005D8E054505E20545B9
:10149000631EB700631CF300631A94008247638BDA
:1014A000D70009E7336553003335A0002244924446
:1014B000310182800145DDBFB7071000FD175111D2
:1014C000B3F2B70013D3450113D74601F58FFD8260
:1014D00022C426C236C01373F37F9306F07FAA831B
:1014E0002A84FD81B2841377F77F631AD300B3E6B1
:1014F000A2007955BDC62244924431018280631610
:10150000D700B3E6C7007955FDF6631E030433E543
:1015100072001335150019E35D8E15CE19E582466C
:101520006389D5000545E1D919A08247E9F77D55C2
:10153000D9B7E34967FE6356E3007D55CDDD054528
:101540005DBFE3E157FE639BF200E3ED84FC0145E0
:10155000E37394FADDB779D5014571BFE3EFF2FC8F
:10156000E5BFE30067FA45FF01457DB7B707100007
:10157000FD175111B3F2B70013D3450113D746013C
:10158000F58FFD8222C426C236C01373F37F930603
:10159000F07FAA832A84FD81B2841377F77F631AD0
:1015A000D300B3E6A2000945BDC6224492443101EE
:1015B00082806316D700B3E6C7000945FDF6631EB7
:1015C000030433E572001335150019E35D8E15CE63
:1015D00019E582466389D5000545E1D919A08247FE
:1015E000E9F77D55D9B7E34967FE6356E3007D55BA
:1015F000CDDD05455DBFE3E157FE639BF200E3ED02
:1016000084FC0145E37394FADDB779D5014571BFD8
:10161000E3EFF2FCE5BFE30067FA45FF01457DB764
:10162000130181FD2A872A8393D7F50113D545013C
:1016300022D026CE06D29394C5001375F57F3EC402
:101640003684B18041C99306F07F6305D50E935669
:10165000D70193973400D58FB7068000B3E3D70046
:1016600013133700930515C0814413554401931299
:10167000C4001375F57F328793D2C2007D8069CD97
:101680009307F07F6308F5149357D6018E02B3E2F7
:101690005700B7078000B3E7F200131736001305B1
:1016A00015C081462246218E32C03386A50032C63F
:1016B000050632C213962400558E7D16B94563EC9B
:1016C000C51297450000938525090A062E961042FB
:1016D000B2958285B3E3E4006387030632C285CC0A
:1016E00026853AC0EF00D02B02471246930555FFDE
:1016F000F14663CBB602F546130385FF8D8EB39793
:101700006400B356D700B3E3F600331367009305C4
:10171000D0C0898D91BF3A853AC0EF00702813057B
:10172000050212460247D9B7930785FDB313F700A8
:101730000143F1BFB3E3E400638B0300A683930589
:10174000F07F8D441DB701438145854439BF014376
:101750009305F07F894411BFB3E7C200C1C7638519
:101760000204168532CA1AC81EC62EC216C0EF0061
:10177000302382429245B24342435246930655FF7C
:10178000F14763C3D704F547130785FF958FB392DD
:10179000E200B357F600B3E757003317E6009306AD
:1017A000D0C03385A640F5BD328516CA1AC81EC6FC
:1017B0002EC232C0EF00D01E13050502D2424243B2
:1017C000B243924502465DBF930285FDB3175600B2
:1017D0000147F1B7B3E7C20091CB96871305F07FBD
:1017E0008D46C9B50147014585466DBD01471305C5
:1017F000F07F894645BD1356030193540701C16626
:101800009382F6FFB3069602337353003377570083
:101810003304E60236C4B3866402B3056702A296B7
:10182000368593D60501AA9663F78600330496029F
:10183000416522952AC413D50601B3F65600B3F5C7
:101840005500C206AE96B3F2570093D5070136CACB
:10185000B3876202B306560213D4070133836502CD
:10186000369322933306B6026374D300C16636966C
:1018700013540301B306C40036C8C1661386F6FFCD
:101880003373C300F18F42033E93B307650033F611
:10189000C30013D503013ECCB383A402B307C70230
:1018A000B384C40213D407013307E502BA94A294A7
:1018B00063F3E400B6933384C20213D70401BA93EE
:1018C00041679306F7FFF58CC204F58FBE94B3020F
:1018D00055023386C5023385A50216969355040139
:1018E000B29563F355003A95A2476247B386E70085
:1018F000C167FD1733F6F5007D8CC247420622967C
:1019000033B366003E964247A69633046600B3B7EB
:101910009600B3027400B384F2003336E60033332A
:101920006400B3B7F40033666600C181B3B27200DD
:101930002E96B3E2F200B292524613979600169595
:1019400093D7740193129500518FDD82B3E7F200B3
:101950003337E000558FA60493967700458F63D9FF
:10196000060A93561700058B558F9396F701558FEE
:10197000858392461386F63F635FC00893767700AF
:1019800081CE9376F70091456388B60093064700B1
:1019900033B7E600BA9736879396770063D9060087
:1019A000B70600FFFD16F58F924613860640930694
:1019B000E07F63C0C6100D839396D701558F93D2F5
:1019C00037008247B2029376F67FD20692500254D5
:1019D00093D2C200FE07B3E2D200B3E6F200F244B3
:1019E0003A85B685130181028280A2473EC09E8758
:1019F0001A87A6860946638EC60A0D466384C60A00
:101A00000546E398C6F681420147BDA022C0DDB776
:101A1000B24636C2B9BF8542B382C2409306800344
:101A2000E3C356FEFD4663CB56049246B3555700BA
:101A3000B3D257001386E641B396C7003317C700E9
:101A4000CD8E3337E000558F9377770081CF937732
:101A5000F70091466388D7009307470033B7E70044
:101A6000BA923E879397820063CA07049397D20184
:101A70000D835D8F93D232000146A1B78556918EBA
:101A800093050002B3D6D70001466387B200124621
:101A90001306E6433396C700518F3337E000558F66
:101AA00081425DB7B702080001471306F07F02C00C
:101AB00009BF814201471306F07F21B781420147E8
:101AC000054601B7B7021000FD12311133F3B20021
:101AD0000E0322C626C413D4450193D4F5019357AF
:101AE000D501B3F5D200B3E7670093D24601135393
:101AF000D6018E05B365B30006C81313360093F202
:101B0000F27F1306F07F1374F47F13173500FD8204
:101B10006395C20033E6650019E293C616003305EB
:101B2000544063959622635EA00E63940204B3E66C
:101B3000650085C21305F4FF09E93A933337E300E2
:101B4000AE97BA971A87054495A89306F07F631954
:101B5000D40293767700638F064E9376F700114692
:101B6000638AC64E9306470033B7E600BA973687B6
:101B7000D5A19306F07FE30ED4FCB7068000D58D87
:101B80009306800363CAA608FD4663C0A606130633
:101B90000002098EB396C500B352A3003313C300ED
:101BA000B3E656003333600033E36600B3D5A500D7
:101BB0003A93BE95B337E300AE971A8793968700A2
:101BC000E3D906F805049306F07F6303D44837068B
:101BD00080FF7D167D8E93561700058B9317F601B7
:101BE000558F5D8F93571600ADB7930605FE930290
:101BF0000002B3D6D5000146630855001306000461
:101C00003305A6403396A500336366003333600086
:101C100033E36600814569BF33E365003333600019
:101C2000D5BF45C9338682400DE4B3E6E70063883B
:101C300006409306F6FF99E61A97AE97333367008E
:101C40009A9711B71305F07F631DA600AE871A8718
:101C5000E5AC9306F07FE38BD2FEB7068000D58F0C
:101C6000B286130680036342D6067D46634AD602D7
:101C700013050002158DB353D7003396A700331711
:101C8000A700336676003337E000518FB3D6D70014
:101C90001A97B387B600333367009A97168439BF13
:101CA000138606FE9303000233D6C70001456388FE
:101CB000760013050004B306D5403395D700498F4D
:101CC0003337E000518F8146E1B75D8F3337E00055
:101CD000DDBF9306140013F6E67F31E6B3E6E700B6
:101CE0001DE463820636B3E66500E38406E63A93B4
:101CF0003337E300AE97BA97939687001A87E3DAF3
:101D000006E4B70680FFFD16F58F054499B59DDE04
:101D100033E36500630A03228144B70740000147AB
:101D20001304F07F05AE1306F07F6381C6323A9349
:101D3000BE95B337E300BE959397F5011353130097
:101D400033E76700368493D7150021B56357A00C9D
:101D500063910208B3E66500E38D06DE1305F4FF28
:101D600011E933036740333767008D8F998F1A87E6
:101D70000544B1A09306F07FE30DD4DC9306800305
:101D800063C8A608FD4663CEA60413060002098EAA
:101D9000B396C500B352A3003313C300B3E6560095
:101DA0003333600033E36600B3D5A50033036740E7
:101DB000B385B740B3376700B387F5401A8793966A
:101DC0008700E3D806D8370680007D167D8EBA825C
:101DD0006DA29306F07FE30ED4D6B7068000D58DB2
:101DE00071BF930605FE93020002B3D6D5000146EB
:101DF00063085500130600043305A6403396A5007A
:101E0000336366003333600033E36600814579BF96
:101E100033E3650033336000D5BF71C13385824041
:101E20001DE833E6E700630406281306F5FF19EA08
:101E30003307E340B387F5403333E300B3876740AC
:101E4000B6843DB79303F07F631F7500AE871A8792
:101E50001304F07F65A01306F07FE389C2FE370606
:101E60008000D18F2A86130580036346C5067D4511
:101E7000634DC50293030002B383C3403354C700CC
:101E80003395770033177700418D3337E000498F62
:101E900033D6C7003307E340B387C5403333E3008D
:101EA000B38767401684B68419BF130506FE130472
:101EB000000233D5A7008143630886009303000422
:101EC0003386C340B393C70033E7E3003337E00002
:101ED000498F0146C1B75D8F3337E000DDBF130680
:101EE00014001376E67F35E633E5E70033E6650058
:101EF00031E419E56301061CAE871A87B68491B9EF
:101F0000E30906C433056740B332A7003386B74000
:101F1000330656409312860063DB02003307E3402A
:101F2000B387F5403333E300B3876740C1BF3367FE
:101F3000C50063060718B2872A8721B909E9630239
:101F40000618AE871A87B6841304F07F19B16DDEC8
:101F5000E1B3B3026740333557003386B740098E8B
:101F600013158600635C0506B302E340B387F540B2
:101F70003333530033866740B6843DC6328516C27C
:101F800032C0392C02469242930685FFFD4763C654
:101F9000D70693070002958F3316D600B3D7F20009
:101FA0005D8E3397D20063C68608338486409305DE
:101FB0001400FD4763C9B704130500020D8DB35724
:101FC000B700B316A600DD8EB317A700B337F00035
:101FD00033E7F600B357B6000144A5BE33E7C200AD
:101FE00049FF81470144D1A8168532C216C04D2A47
:101FF000130505021246824241BF130685FD339642
:10200000C20001474DB70514930700023354860000
:1020100081426388F50093020004B382B240B31298
:102020005600B3675700B337F0003367F4008147B9
:1020300065B7B70780FFFD17158CF18F19BEAE8706
:102040001A87328439B6AE871A8721B61304F07F17
:10205000814701479396870063DB060005049306DA
:10206000F07F6305D406B70680FFFD16F58F139544
:10207000D7010D839306F07F498F8D836319D400B8
:102080005D8F814709C7B707080001478144B20740
:102090001374F47F5204B183C18FC2403244FE04F2
:1020A000B3E697003A85A244B68551018280AE8797
:1020B0001A872A84A1B581470147814461BF8147BE
:1020C000EDBF01478144B707400099B981470147F7
:1020D00079BF13D74501B70610009387F6FF137732
:1020E000F77F1306E03FED8FFD816354E60413068E
:1020F000D0416358E600370500801345F5FF2E9563
:102100008280D58F93063043998E7D46634DD600ED
:102110001307D7BEB397E7003355D5005D8D99C936
:102120003305A040828013053041198D33D5A700B7
:10213000FDB701458280511106C422C226C021CDBF
:102140009357F54133C4A7001D8C9354F5012285A4
:1021500081281307E041A947098F63C9A702AD474A
:10216000898F5505B357F4003314A400B2071377D1
:10217000F77F52072285A2401244B183FE04D98F13
:1021800033E79700BA858244310182805515B31731
:10219000A4000144E1BF8147014401478144F9B7EC
:1021A000C1676376F5029307F00FB3B7A7008E07F8
:1021B000130700021D8FB357F500173500001305F4
:1021C000655DAA9703C507003305A74082803707DE
:1021D0000001C147E36EE5FCE147D9BFB3C7A500E5
:1021E0008D8B3307C50081E78D4763E9C702AA8756
:1021F0006371E50C83C6050085078505A38FD7FEAF
:10220000E3EAE7FE828083C6050085078505A38F84
:10221000D7FEE3EAE7FE024411018280937635009F
:10222000AA8791CA83C6050085078505A38FD7FEB7
:1022300093F63700FDB79376C7FF138606FE63F566
:10224000C706711122C0C04903A3050083A38500FE
:10225000C0CB804D23A0670003A3450080CFC04DB5
:1022600023A2670083A2C50003A30501938545024D
:10227000C0CF03A4C5FF23A4770023A6570023A83B
:1022800067009387470223AE87FEE3EEC7FAE3F2C7
:10229000D7F890419107910523AEC7FECDBF90417D
:1022A0009107910523AEC7FEE3EBD7FEE3E4E7F425
:1022B00082808280000063F3A504B386C500637F3B
:1022C000D5029345F6FF8147FD176393F5008280A1
:1022D0003387F600034307003387C7002A9723009C
:1022E0006700DDB73387F500834607003307F50045
:1022F00085072300D700E317F6FE82808147E5BFFC
:102300003D432A876373C3029377F700BDEFADE5C2
:10231000937606FF3D8ABA960CC34CC30CC74CC7D4
:102320004107E36BD7FE11E28280B306C3408A0601
:102330009702000096966780A6002307B700A306C1
:10234000B7002306B700A305B7002305B700A30411
:10235000B7002304B700A303B7002303B700A30209
:10236000B7002302B700A301B7002301B700A30001
:10237000B7002300B700828093F5F50F9396850090
:10238000D58D93960501D58D61B793962700970259
:10239000000096968682E78086FA9680C1171D8F88
:1023A0003E96E374C3F8A5B7000093F5F50F834795
:1023B000050091C76393B70082800505CDBF91C129
:1023C00001458280AA8703C7050085078505A38F7D
:1023D000E7FE75FB8280AE871307E008B28563676E
:1023E000F732173300001303E34A139627001A96B7
:1023F00018421A97028717450000130525E28280CC
:1024000017450000130545E28280174500001305BB
:1024100065E38280174500001305C5E382801745F8
:1024200000001305A5E48280174500001305C5E4EC
:102430008280174500001305E5E5828017450000FE
:10244000130585E6828017450000130525E7828085
:1024500017450000130545E8828017450000130565
:10246000A5E88280174500001305C5E8828017455E
:102470000000130525EA8280174500001305C5EA10
:10248000828017450000130565EB82801745000028
:10249000130505EC828017450000130525EC8280AA
:1024A00017450000130505ED828017450000130550
:1024B00025ED8280174500001305C5ED8280174584
:1024C0000000130525EE828017450000130585EEF8
:1024D0008280174500001305E5EE82801745000055
:1024E000130545F08280174500001305A5F0828092
:1024F00017450000130545F18280174500001305BC
:10250000E5F2828017450000130545F482801745E7
:1025100000001305A5F5828017450000130505F797
:102520008280174500001305E5F7828017450000FB
:10253000130545F88280174500001305A5F8828031
:1025400017450000130545F9828017450000130563
:1025500025FA828017450000130585FA8280174509
:1025600000001305E5FA8280174500001305C5FB3E
:10257000828017450000130525FC82801745000066
:10258000130545FC8280174500001305A5FE8280D7
:1025900017450000130545FF82801745000013050D
:1025A00065008280174500001305050182801745EC
:1025B00000001305E50182801745000013050502A0
:1025C0008280174500001305E50282801745000050
:1025D0001305C5028280174500001305250382807C
:1025E00017450000130505048280174500001305F8
:1025F000A5048280174500001305850582801745D4
:1026000000001305E50582801745000013058506C7
:1026100082801745000013052507828017450000BA
:102620001305450782801745000013056508828061
:1026300017450000130505098280174500001305A2
:10264000250A8280174500001305050B8280174577
:1026500000001305250C8280174500001305050CAA
:102660008280174500001305650E82801745000023
:102670001305C50F828017450000130525118280C0
:102680001745000013050512828017450000130549
:10269000A5128280174500001305C51382801745D7
:1026A00000001305A5148280174500001305851549
:1026B000828017450000130525178280174500000A
:1026C000130505188280174500001305251982801F
:1026D000174500001305C519828017450000130532
:1026E000A51A8280174500001305451B82801745F7
:1026F00000001305E51C8280174500001305C51E68
:102700008280174500001305651F8280511106C4A1
:1027100091E2AA8636863E85252E09E517450000FA
:1027200013050599A2403101828017450000130569
:10273000651E82809387C1A4AA858843814601468D
:1027400059B99387C1A4AA8588438146014661B1DE
:10275000AA87850703C7F7FF6DFF3385A7407D155F
:1027600082801301C1FD26CC06D022CE2AC4AE84BD
:10277000138414008347F4FF3A8536CA32C82EC644
:102780003EC23AC01D2E92470247B2453E950345D0
:1027900015004246D246218951ED1307D002639DB0
:1027A000E70883470400854313842400E5CA4147B2
:1027B0006392E60213070003639EE7008347040069
:1027C0001307800593F7F70D6395E70C8347140013
:1027D000C1460904B70200806394030093C2F2FF6C
:1027E00033F7D202014301453AC233D7D2023AC08D
:1027F000138707FDA54463F9E4001387F7FBE5445D
:1028000063E7E404138797FC635BD704FD57630F0A
:10281000F30082477D5363EBA7006395A7009247BF
:1028200063C6E7003385A60205433A95050483474E
:10283000F4FF7DBFA2842DBF1307B0026384E700BD
:102840008143ADB78347040013842400D5BF1387A9
:10285000F7F9E54463E5E400138797FA75B7FD5788
:10286000631EF30022479307200216851CC311EE56
:1028700082507244E2441301410282806384030067
:102880003305A04075D6630403009305F4FF0CC222
:10289000C5B7930700039DFEA1462DBF1307000394
:1028A000E38EE7F0A9463DB79387C1A49C43D85B6C
:1028B00019E31387C1E775B59387C1A43687B2863C
:1028C0002E86AA85884371BD9387C1A49C43B28696
:1028D000D85B19E31387C1E72E86AA853E8551B5DB
:1028E0001301C1FD26CC06D022CE2AC2AE841384A9
:1028F00014008347F4FF3A8536CA32C82EC63EC458
:102900003AC0652AA2470247B2453E9503451500E5
:102910004246D246218951E51307D0026395E70864
:1029200083470400854213842400EDC2414763922B
:10293000E60213070003639EE700834704001307C2
:10294000800593F7F70D639EE70A83471400C1469D
:1029500009047D57B354D702014301453377D702A9
:102960003AC0138707FDA54363F9E3001387F7FB1C
:10297000E54363E5E304138797FC635BD704634790
:1029800003047D5363EBA4006395A400824763C6F0
:10299000E7003385A60205433A9505048347F4FF13
:1029A000C9B7A284A9B71307B0026384E7008142C4
:1029B000ADBF8347040013842400D5BF1387F7F904
:1029C000E54363E7E300138797FA45BF7D53F1B70B
:1029D000635E03001247930720027D551CC311EE6E
:1029E00082507244E24413014102828063840200F7
:1029F0003305A04075D6630403009305F4FF0CC2B1
:102A0000C5B793070003B1F6A146A1B713070003AA
:102A1000E385E7F2A94635BF9387C1A49C43D85B01
:102A200019E31387C1E76DBD9387C1A43687B286CA
:102A30002E86AA8588436DB59387C1A49C43B28630
:102A4000D85B19E31387C1E72E86AA853E8549BD69
:102A50000145828011EE17450000130525EC8280A8
:102A600017450000130585EBA24012443101828016
:102A70005111974500009385A5EA328522C206C40C
:102A800032847D2071DD97450000938525E92285FC
:102A9000452079D5973500009385856122854928A1
:102AA00061D10145D1B79387C1A49C43DC5B99E315
:102AB0009387C1E703C5871282800325C50E8280F4
:102AC0009387C1A49C43DC5B99E39387C1E703A58B
:102AD000C70E82809387C1A42E86AA8588439DBF96
:102AE0009387C1A49C43DC5B99E39387C1E703A36D
:102AF000470E028385E171118A85014511CA795516
:102B000081CA834706009CC1034506003335A000F7
:102B100011018280014519CA795589CA8347060087
:102B20009CC1034506003335A000828082800000EE
:102B30003367B500FD530D8B79E7B7877F7F9387A8
:102B4000F7F710419441B372F6003363F600BE927A
:102B5000B3E262006397720C6318D6065041D44109
:102B6000B372F6003363F600BE92B3E2620063987C
:102B7000720A631BD60410459445B372F6003363A2
:102B8000F600BE92B3E262006391720A631ED6023F
:102B90005045D445B372F6003363F600BE92B3E2FB
:102BA0006200639A72086311D60210499449B372A5
:102BB000F6003363F600BE92B3E2620063937208DC
:102BC0005105D105E30FD6F61317060193970601B9
:102BD000631CF7001357060193D706013305F7402E
:102BE0009375F50F91E982804183C1833305F740E6
:102BF0009375F50F91E182801377F70F93F7F70F35
:102C00003305F74082800346050083C605000505AD
:102C100085056313D60065FA3305D6408280110519
:102C20009105E312D6FE014582802105A105E31C32
:102C3000D6FC014582803105B105E316D6FC01457D
:102C400082804105C105E310D6FC0145828093874F
:102C5000C1A49C43DC5B99E39387C1E703A3070E00
:102C6000028391CD9307F00F63F7C7009307A00885
:102C70001CC17D5582802380C500054582800145A9
:102C80008280511106C4EF00707EEF10E00681458E
:102C90000145EF005037B7270020A24023A2A7C666
:102CA000F1658D4701478146014693850520310135
:102CB0006F00B035B7E700E0938707103E95834774
:102CC000054093E717002300F5408280B7E700E056
:102CD000938707103E958347054093F7E70F23003E
:102CE000F5408280B72700200A05938707C73E95E5
:102CF0000CC18280B7270020938707C70A053E953D
:102D0000B70700009387071C1CC182807C45417770
:102D10007D17F98F7CC57C4593F7F7CF7CC5BD4700
:102D200063F9B7007C45416713070730D98F7CC52D
:102D30008280AD4763F7B70041677C4513070720E2
:102D4000F5B78D4763F7B70041677C451307071058
:102D5000F1BF7C4593E70710D9BFB72700201317B1
:102D600035009387C787BA979C430547DC438D8B13
:102D70006388E70089C709476385E700828035AF2C
:102D8000A9A839AE311150008A8522C606C82A8406
:102D900002C002C2EF00902C894763E1A70282477C
:102DA000372500200E041305C58722951CC19247C4
:102DB0005CC10145C240324451018280370518810F
:102DC00013054508C5BF894763F7A7003705188174
:102DD0001305450882800145828093070003B307ED
:102DE000F502111126C8B72400201387448922CA8E
:102DF00006CC2A8693844489BA978043196774481D
:102E00001393E600758F1353E3000DC7114798D74E
:102E100023200400232E040483A387002328040412
:102E200023206406638003025244E240C2449D456D
:102E3000710182838C572A8705456389A50209455C
:102E40006385A51093070003B307F60223206406E9
:102E5000232E04042328040423200400BE9403A387
:102E600084006306030C99453285D9A293F52600A8
:102E700001468DCDD0538C4B5C44918DA18341464E
:102E8000FD8BB307F64013F6F50F63F9B7005C440A
:102E90004146A183FD8B1D8E1376F60F9307000329
:102EA000B307F7020145A6976368C50893070003B7
:102EB000B307F702A697CC539C4B6399F5001C54BB
:102EC00093E727001CD43C48F59B3CC893973601F8
:102ED00063D8070293070003B307F7029545A69747
:102EE0008CD79C472320040081CF3A85814532C688
:102EF0001AC436C23AC082973246224392460247EB
:102F000093070003B307F702C18ABE94DC503E96D4
:102F1000D0D081CE9D479CD49C442320040091C7EF
:102F20009D453A851AC08297024323206406E240F9
:102F30005244C244710182808C4F050583C2050052
:102F40008505232454008CCF85B713F6060235C6B9
:102F50001306000230D04C440146C181FD89636EE6
:102F6000B60C93070003B307F7025044C145218212
:102F70007D8A918DA6978853854763F6A500C14742
:102F8000918F93F7F70F130600033306C7022696B7
:102F90000C52E1CD814513030010639FF50ABE85F5
:102FA00022853AC436C23EC09533824792462247B4
:102FB00089E73C480566D18F3CC893070003B307F7
:102FC000F702A697D04FDC47631AF6001C5493E72C
:102FD00027001CD43C4893F7F7FD3CC893F7063014
:102FE0009DC393070003B307F7021D46A69790D72A
:102FF0009C472320040081CB3A859D4536C23AC0C8
:1030000082979246024793973601E3D207F285678B
:103010003CD093070003B307F702BE9403A38400D8
:1030200099479CD423200400E30303F081453A85AB
:103030005244E240C2447101028303238400C84B1E
:1030400005061376F60F23006500C84B0505C8CBAF
:10305000C84F0505C8CF21B7232464000852850551
:1030600093F5F50F7D1508D20DBF81470DBF894738
:103070006316F502511106C481ED8545B72700207E
:1030800003A54792EF0050050145A240310182801F
:1030900085477D55E39BF5FE8145CDB7014582808F
:1030A0009307C004B307F502011126CAB724002014
:1030B0001386849222CC06CEAA86938484923E966E
:1030C0000042032344059317E300B9833EC09317DE
:1030D000E30063D307085C44484A4C4EC183FD8B30
:1030E0006373F500AA87B382F500639655101D8DB2
:1030F000631905103C488175FD15ED8F3CC8930799
:10310000C004B387F6021AC836C632C2A69783C572
:1031100087033EC4F999238CB70223200400BD45E0
:103120000CC02320040023AA070003454603814561
:103130003D3FA2471246B24683A3C7004243638A7B
:103140000300A843894532C41AC28293124322461F
:10315000B246B70702003CD013732300630603088E
:103160009307C004B387F602A6978C5B03A30700FE
:10317000639E050ECC53DDED8857C14763F3A7006E
:1031800041459307C004B387F602A697C8D3639F4F
:10319000A50A9307C004B387F602A6978C576394D9
:1031A00005108325030536C61AC4F5992328B304F0
:1031B00083C5870323A807003EC2F999238CB70271
:1031C0000345460381456535924722433D468C5B66
:1031D000232003002320C300B246D047F1E161C69B
:1031E000A843029689473CD08247F240D2443CD063
:1031F000624405618280832384008505A38F75FE68
:10320000EDB59307C004B387F602A69783A2070023
:1032100083A3420493F3F3FC23A2720483A3420426
:1032200093E3030223A27204894223A85702CCCF5E
:10323000C8CB05B703258300CC4F2380A500CC4F16
:103240008505CCCFCC53FD15CCD32DB783A28701F8
:10325000850583C3020085022324730023AC570035
:1032600083A20701FD1223A8570015B78C57C14749
:1032700063F3B700C1459307C004B387F6028142E8
:10328000A697CCD3E38755F0884F8502834305008A
:1032900005052324730088CF884B7D1588CBDDB7C7
:1032A00019C2854535BF9307C004B386F602B694AC
:1032B0009C54D450958F9CD435B7584519C35C495C
:1032C00091E703238500B9454859028310415C46C4
:1032D000C183BD8B6373F700BA8701476315F7029B
:1032E000584D5C45636DF70203238500232E0500CE
:1032F0001CD9232A05002324050223260500630088
:1033000003028545D1B70C46544905072380B60012
:10331000544D850654CD5449850654C9C1B78280A1
:10332000411122C40041485906C6232004002EC082
:10333000EF00100329473305E5028245B355B50276
:103340009181B3D7E502B3F5E50211476363B70096
:10335000FD171CC8BD471CC0B240224401454101B5
:10336000828011CD1C413D4723A0070098C399E1FD
:103370000145828037050281130565088280370583
:10338000028113054508828039C91C41054723A0E5
:103390000700638BE50289C90947638EE50037059D
:1033A0000281130595088280984F3D9B98CF3D4739
:1033B00098C301458280984F3D8B98CF984F1367F3
:1033C000070198CF984FDDB7984F3D8B98CF984F16
:1033D0001367070198CF984F13670702C1BF3705DE
:1033E000028113054508828031C91C41054723A08D
:1033F0000700638DE50289C909476381E502370546
:1034000002811305A5088280984F1377370398CF60
:10341000984F98CF3D4798C301458280984F1377C6
:10342000370398CF984F13674700E5B7984F137746
:10343000370398CF984F13678700E1BF37050281A4
:103440001305450882802DC51C41054723A00700B0
:103450006388E50281CD0947638CE5020D476381EE
:10346000E50437050281130585088280984F13779C
:10347000C70398CF984F98CF3D4798C301458280A6
:10348000984F1377C70398CF984F13671700E5B786
:10349000984F1377C70398CF984F13672700E1BF62
:1034A000984F1377C70398CF984F13673700E1B74A
:1034B0003705028113054508828093078003B3070F
:1034C000F502B72600201387C6A0011126CA22CC18
:1034D00006CE2A84BA978443F8483AC03A0739831B
:1034E0003AC40247137627001387C6A03AC21DCEFE
:1034F000944B9DCA9053636FD60AB048759AB0C872
:10350000B04813660640B0C8D4D7944723A007023A
:1035100023A2070223AC070023A8070091C6C85BBB
:1035200081453EC68296B2478946B4D0024793761B
:10353000070281CA3E853EC64933B2479306000260
:10354000B4D002479376074085C6D444C182FD8A31
:1035500089CE93068003B306D4021247BA96D046AA
:1035600041CED44AD1CA3E85893B93070002BCD0E4
:103570008247139747016358070293078003330478
:10358000F40292473E941C409443DD9A94C39443C2
:1035900093E6860094C31C4481C74858A54582978A
:1035A00093070002BCD0A247F2406244BCD0D24490
:1035B000056182808C53B385B640BD4663F3B60087
:1035C000BD4593068003B306D402124702C802C861
:1035D000BA9642466365B6008946B4D0B1B7904EFC
:1035E00003450600050688C4885290CE050588D29A
:1035F0004246050632C8F1BF93078003B307F402C1
:103600001247BA97944789C6C85BB9458296B1BF3D
:103610009C439443DD9A94C3944393E6860094C3F9
:10362000A9B718410CC75C47858BF5DF014582803F
:1036300011112EC0740030004C0026C806CC22CADE
:10364000AA84B924894763F9A70001442285E2408E
:103650005244C244710182802685EFF0AFF2E34606
:1036600005FE13048003B387840222473724002019
:103670001304C4A0C1453E9458C09247024744D8A1
:103680001CC018C40567130787F923A00700F8CFEB
:10369000B8CB3E853EC0EFF06FE782474840B24569
:1036A00023A20700EFF00FE44840EFF0AFE079BF4E
:1036B00029C1511122C226C02A840441484106C4AE
:1036C000EFF0CFE04840EFF0EFE2485823A00400CD
:1036D00023240400EFF02FEF814763560500B7075E
:1036E000028193874708A240124482443E853101FB
:1036F0008280B7070281938747083E858280111137
:1037000026C8044122CA06CC23A004002A8432C65B
:1037100036C43AC03EC22931634B0502A246228517
:10372000B6859D316345050232462285B28515393D
:10373000634F0500824522854539634A050092455D
:103740002285113363450500BD479CC00145E24019
:103750005244C2447101828005CD9DC915CA1C41E5
:1037600023200502054758D1F84F0CCD10C9232658
:10377000050213672700F8CFB84B014513672700F0
:10378000B8CBB84B1377F7BFB8CB3D4798C382800F
:103790003705028113054508828001CD99C9232E82
:1037A000050085474CC950C51CD523280502014595
:1037B0008280370502811305450882800DC185C1CD
:1037C000184101455C47918B91C382801447B387B0
:1037D000A50005052380D700E366C5FE8280370576
:1037E000028113054508DDBF711119C95C511855D7
:1037F00013F517009377170086075D8D136505187D
:103800001101828039BD2DB565B5D5BDB1B771B790
:1038100075B7D9BFBD4763C1A70491C9B147330785
:10382000F5029967938707BDBA979C439CC111CA5B
:10383000B1473307F5029967938707BDBA97DC4311
:103840001CC281CEB1473307F5029967938707BD44
:10385000BA979C479CC282807D558280894763C706
:10386000A70291C9B1473307F5029967938707C942
:10387000BA979C439CC101CEB1473307F5029967C3
:10388000938707C9BA97DC431CC282807D5582802A
:10389000894763C1A70491C9B1473307F502996706
:1038A000938707C9BA979C439CC111CAB147330794
:1038B000F5029967938707C9BA97DC431CC281CE8A
:1038C000B1473307F5029967938707C9BA979C47B1
:1038D0009CC282807D55828005CD03470500F1465C
:1038E00003461500B306D70237270020130747AB5E
:1038F000B395C5008547B397C70093C7F7FF014548
:1039000036970CCF18431443F58FDD8D0CC382809E
:1039100037050181130545088280E1473307F50229
:10392000B7270020938707ADBA970547D8CBD84370
:1039300003A3C700584763040300814502838280C4
:10394000111106CC22CA26C8BD4763F9A70001445D
:103950002285E2405244C24471018280AE847400E8
:1039600030004C002AC002C202C46D350247E31089
:10397000A7FE6144B307870237240020130404AD77
:10398000A24601453E94924714C42300E4005CC063
:103990003EC0E92A7D573355A70237470F0013076A
:1039A000072482473305E50298479376E70103C76A
:1039B0008700019B558F08C82384E70098477D8BBB
:1039C0009366470003C78700019B558F2384E70058
:1039D00044C4BDDC0844B245EFF0CFB00844EFF07A
:1039E0006FADBDB711C55C4189C90547638CE50260
:1039F0003705078113054508828098479376D701DC
:103A000003C787000145019B558F2384E700984732
:103A10007D8B9366070103C78700019B558F238425
:103A2000E700828098477D8B93662700D1BF01C550
:103A30000CC901458280370507811305450882803E
:103A400045C5411106C622C426C22A84232A050080
:103A500003450500B7440F0093840424012AB344AE
:103A600095020345040019221C483385F4028DE0B9
:103A7000034504003EC0DD28824737460F00130689
:103A800006248146B325F5023385A702EFC08FF6E1
:103A900018485C4029E77D5798C39847B2402244B4
:103AA0009376E70103C7870092440145019B558F38
:103AB0002384E70098477D8B9366170003C7870030
:103AC000019B558F2384E70098479376B70103C77E
:103AD0008700019B558F2384E7004101828098472E
:103AE000758B55DB88C355BF37050781130545081E
:103AF000828019C591C55C410145DC439CC182802F
:103B000037050781130545088280014539B505450C
:103B100029B5094519B50D4509B51145FDBB154533
:103B2000EDBB1945DDBB1D45CDBB2145FDB325458D
:103B3000EDB32945DDB32D45CDB33145F9BB354551
:103B4000E9BB3945D9BB3D45C9BB01456FF0EFA085
:103B500005456FF08FA009456FF02FA001458280C9
:103B600003A581FE828003A581FE828003A581FEDC
:103B70008280B7E700E0511193870710056722C2E2
:103B80003E97914606C42300D7B037E400E00147D2
:103B9000B1463386E700230006000507E31BD7FE86
:103BA0000D45EFF02F9173600430753F9307400689
:103BB0003345F502B70700017D156377F50048C866
:103BC000232C04009D471CC81244A24031014DAC77
:103BD000311122C606C826C42A84F325203437654D
:103BE000000093F5F53F130545CBEF10001629456E
:103BF000EF102027A28481479040138717003EC210
:103C0000B76700001385C7CCBA853AC0EF10E01340
:103C100092478D468D8B6395D7002945EF10602420
:103C20008247BD469104E399D7FC2945EF106023F4
:103C30004C5C37650000130585CDEF1000112C405A
:103C400037650000130585CEEF102010B727002040
:103C500083A707D391C3829701A081E9B7270020EA
:103C6000938787C59843050798C382803111B7456C
:103C7000000022C69385A5C501453724002006C84B
:103C800026C4130404C66D3908C001E9FD54C240BE
:103C900032442685A244510182800145C13DB727A7
:103CA000002023A8A7C4B7470F00938707243355E4
:103CB000F502B794980093840468B72700208545DF
:103CC0003305950223AAA7C40840293B61F10840A7
:103CD000A685B13BAA845DF908408A85193D084054
:103CE0004C00013D12478247E3F3E7FAB727002073
:103CF0000547238EE7C461BFB727002023AC07C464
:103D0000B727002003A507C6511106C4153BA240E2
:103D10003335A0003305A04031018280511122C209
:103D200026C01D649D6406C4130484929384849207
:103D3000711463779400A24012448244310182805E
:103D40001C408297F5B7511122C226C01D649D64A4
:103D500006C4130484929384449263F78400A240BF
:103D600012448244310182801C4011048297F5B7CD
:103D70005111B727002026C0AA8403A547C606C450
:103D800022C215C1138447C6A9476394F400B54500
:103D9000953C084093F5F40FB5340145A240124418
:103DA0008244310182807D55D5BF01458280014525
:103DB0008280411122C42A8488412EC006C6D520A3
:103DC000050512051307850022972A941C48824591
:103DD00091C7944381C6904163EBC6000CC7D8C518
:103DE0009CC591C3CCC7B2402244410182803E872A
:103DF0009C47F9BF1387F5002E964C45419B419A8D
:103E0000B307E640BE954CC518C92143B7020080F0
:103E1000C1171CC723206700232257009305870082
:103E200023A26500130786FF58C9B3E75700232C68
:103E300066FE232EF6FEB5BF411122C426C206C679
:103E40002A8432C023260500AE8413060013814560
:103E50006105EFE0EFCA02479307840293068414DA
:103E6000138607FF23ACF7FED0C7C107E39AD7FE3E
:103E700022852244B240A68592443A8641019DBFE4
:103E8000B7250020B7070320138605E893870700AE
:103E9000372500203386C740938505E8130545D3B1
:103EA00061BFB7074000637CF500935745000547A5
:103EB00001456363F700828005058583DDBF4945C1
:103EC0008280511122C23704080026C006C4AA8489
:103ED0007D14EFF0BF932685EFF0BF9305897D1425
:103EE00001C975F87D55A240124482443101828097
:103EF000133514003305A040FDB7511122C23724F9
:103F000000209307E4C606C423800700EFF01F904B
:103F1000B7070800FD171304E4C6054783460400ED
:103F2000FD176308D700FDFB7D55A2401244310107
:103F300082807D55FDDB230004000145FDB78547E8
:103F4000638CF50089C5B947638DF50082803727FA
:103F500000202307F7C68280B72700202386B7C634
:103F60008280B727002003A587C611118A853D46A8
:103F700006CCEFF0FF89E24071018280111126C862
:103F800006CC22CA85446380950289C9B9476381FA
:103F9000F502E2405244C24471018280B7270020FA
:103FA000238797C6FDB7B72700202386B7C6D5B7A6
:103FB00037240020130484C608403D468A85EFF06C
:103FC0003F851376F50F08408A85EFF03F84B727C9
:103FD0000020A38697C675BF130181FD26CE06D2A9
:103FE00022D0AA8402C24D4792476378F70202C2E8
:103FF0001247CD4763EAE70405469305310026855D
:1040000037040800EFF0BF807D142685EFF07F8035
:1040100009897D1401CD75F8E1BF92477408B69700
:10402000238607FE924785073EC27DBF71D0834736
:10403000310029476385E70035476394E7049247D9
:104040007808BA97238607FE124785476319F70059
:1040500003478100930790070545630EF700124759
:10406000854709456319F700034781009307E00678
:104070006313F700014592500254F2441301810288
:1040800082801307F0076385E7002147639DE700FF
:104090009247B9DF9247FD173EC2054693053100AE
:1040A00026850535B1B712479306170036C2740846
:1040B00036972306F7FED5B7130181FB2AC0376573
:1040C0000000130585CF86C22EC8A2C026DEEF00F1
:1040D000D047376500001305C5D0EF00104737659E
:1040E0000000130545D3EF00504637650000130567
:1040F00085D4EF009045376500001305C5D5EF0066
:104100009057376400000245C13D85476307F500BD
:10411000130544D7EF007043FDB737650000130562
:1041200085D8EF00505537650000130585DAEF009C
:10413000D04102459385C1FE494661333765000091
:10414000130585DCEF00704022C237640000024591
:104150006135854763F7A700130584DDEF00F03E66
:10416000FDB76310F50A37640000130584DFEF0024
:10417000905095656146938505704810EFE00F8675
:1041800037650000130545E0EF00F04E441022C4EF
:104190008040B7670000138547E5A285EF00F03A3D
:1041A0000245A2858D47014781460146EFF0EFE5C4
:1041B000AA85634C0506376400000245313D8547FA
:1041C0006311F50837640000130504EAEF00F037C7
:1041D0009247024549469385C1FEE53137650000A7
:1041E000130545EBEF00703622C637640000024528
:1041F000E533854763FCA704130584DDEF00F03445
:10420000FDB737650000130545E2EF00D04637657E
:104210000000FD55130545E3EF0030337D55964012
:104220000644F254130181048280376500001305AF
:10423000C5E6EF00903137650000FD55130585F0A8
:10424000E1BF130584E8EF00503085BF6312F50825
:10425000A2479104138587DFEF00F0417C18E399B2
:10426000F4F237650000130505ECEF00D0408144FF
:1042700085476386F40AA5C48947638DF40A93874A
:10428000D4FF0547637FF70C376400000245A9336C
:104290008547631CF50AB24737640000138507EAB7
:1042A000EF00B02A9247024549469385C1FE113975
:1042B00037650000130545EBEF0030290245293B27
:1042C000854763F9A708130584DDEF001028FDB7C3
:1042D00037650000130545E2EF00F039A9BFB76765
:1042E0000000138587F28145EF0030268D47014796
:1042F00089460245F165938505200146EFF0EFD030
:10430000AA85E35E05F6376500001305C5E6EF00F4
:10431000D02337650000FD551305C5FAF5BDB76715
:104320000000138587F28545EF0030228D47014755
:104330008546C1B7B7670000138587F28945EF004E
:10434000D0208D47014781466DB7130584E8EF0003
:10435000D01F2DBF6313F50AA247138587DFEF0037
:10436000903185049547E395F4F037650000130517
:10437000C5F3EF005030376500001305C5F5EF00B9
:10438000902F8944B7670000138587FCA685EF004E
:10439000D01B8947639AF4060245F1659385052091
:1043A000014781460146EFF04FC6AA8563400506E6
:1043B0003764000002450D3185476315F506B247A5
:1043C00037640000138507EAEF0030189247024572
:1043D00049469385C1FEF534130544EBEF00F01612
:1043E00022CA376400000245C53E854763F1A70431
:1043F000130584DDEF007015FDB737650000130568
:1044000045E2EF00502731B78D4779B73765000097
:104410001305C5E6EF00701337650000FD55130561
:104420004503DDBB130584E8EF00301261B7631C60
:10443000F500A247138587DFEF00F0238D47638BDC
:10444000F4008D4481B737650000130545E2EF00A5
:104450009022D9B737650000130505FEEF00B021A3
:104460003765000013050500EF00F0208144B767B1
:10447000000013854705A685EF00300D8D470547E1
:1044800091E001470245F16593850520814601468B
:10449000EFF0AFB7AA856346050437640000024514
:1044A000253E8547631BF504B2473764000013853A
:1044B00007EAEF0090099247024549469385C1FEFD
:1044C000EFF03FA0D247138547EBEF0010080245FD
:1044D000213605476378A702130584DDEF00F00657
:1044E000FDB7376500001305C5E6EF001006376518
:1044F0000000FD551305C50605B3130584E8EF005C
:10450000D00471BF2ACC631CE500A247138587DF66
:10451000EF007016E247638BF400854489BF37656E
:104520000000130545E2EF001015D1B70245EFF08A
:10453000AFAD4245B74500009385E5F3EFF0AFAC72
:104540002A8419E537650000FD551305850DE9B18D
:10455000F165B72400208D479385052001478146EA
:10456000014623A4A4C6EFF04FAA938784C63EC297
:10457000AA8563590500376500001305C5E6EF00FD
:10458000C07CC9B7376500001305C508EF00E07BA4
:1045900049469385C1FE2285EFF03F9637650000BE
:1045A000130585DCEF00607AB724002002D04D4768
:1045B0008257637EF70202D00257CD4763E2E706D7
:1045C0009387C4C605469305F10122852380070021
:1045D000EFF0EFA3B7078000FD171387C4C6854629
:1045E00003460700FD17638DC600F9D7D5BF825774
:1045F0007418B697238407FE825785073ED04DBFB7
:10460000C5DF8347F1012300070029476385E700E1
:104610003547639FE70482577818BA97238407FECB
:10462000025785476312F708034741029307900733
:10463000631CF70637650000130585DFEF00B00344
:10464000376500001305050BEF0020700245EFF001
:10465000AF9B4245B74500009385C5F7EFF0AF9A91
:104660002A843DE937650000FD55130585136DB6B5
:104670001307F0076385E7002147639EE700825731
:1046800085DF8257FD173ED005469305F10122854F
:10469000EFF0BF8615B702579306170036D074188F
:1046A00036972304F7FECDB702578547631FF700FF
:1046B000034741029307E0066319F70037650000DE
:1046C000130545E2EF00207BB5BD376500001305FB
:1046D00085DDEF008067D9BD9247F165014788C34A
:1046E00081468D47014693850520EFF00F923DF9F5
:1046F000B7270020238607C6B72700201387E7C601
:1047000023000700372700209306D7C62380060022
:104710009387E7C61307D7C68346070093F6F60FBD
:10472000E5DE03C707001377F70F65DF3765000085
:104730001305850FEF0020742285EFF0EF8CAA851A
:104740000145E3DE05AC3765000013054511EF00B8
:10475000C05F09BF511181451305000206C4EFF087
:10476000EFBFA24081451305100231016FF00FBF6A
:104770005111814526C006C422C2AA84EFF0AF8839
:1047800001ED376500001305C516F5257D55A240DE
:1047900012448244310182802A846D3FF165938501
:1047A00005208D470147814601462285EFF0EF85C0
:1047B000AA8563580500376500001305C5E6712317
:1047C000F1B7A6852285EFF03F8FAA8563570500D4
:1047D0003765000013058518DDB737650000130540
:1047E000051A512D014565B75111014506C44937D8
:1047F0008147635805003765000013058515A52D11
:10480000FD57A2403E8531018280F9BF81470D47A7
:1048100063C4B7003E858280B306F60003C306007A
:10482000B306F500850723806600E393E7FEE3D334
:10483000B7FEA30105009147F1BF130181FAA2C899
:1048400086CAA6C62AD02EC432C036843AD43EC206
:10485000392109CD376600001306861EA28546441D
:104860000245D640B644130181054DB70257A24711
:104870003A85BE85B9232AD211C5376600001306D2
:10488000C61EE9BF0257A247014681463A85BE854A
:10489000EFC0FFBA25E99247638E073A8907636143
:1048A000F40285CB2247635C070482461307D002DB
:1048B0002380E6001387170085479306000301A8AD
:1048C000A147CDB702463E962300D6008507E3EB0D
:1048D000E7FE02479306000303460700054763030C
:1048E000D6000947824636979306E0022300D70098
:1048F0000247B304F700238004003ED269AC3E8730
:10490000814765BF0257A247014681463A85BE8569
:10491000EFC0DFC563590518A2470247B702008000
:10492000B3C2F2009307D0022300F7007D14930472
:104930001700B767000003A5071B83A5471BB767D0
:10494000000003A7071C83A7471C81439246639F6F
:10495000D31402572A86AE863A859685EFB0BFF506
:10496000B767000003A6871C83A6C71C2AC82ECAE7
:10497000EFC0DFBF63580500930700032380F400F6
:104980007D148504A24713D547011375F57F1305E0
:1049900015C0EFD04FFAB767000003A6071D83A626
:1049A000471DEFC0FFC7EFD0CFF2930715003ECCF5
:1049B000635DF022B766000003A6861DBE8283A653
:1049C000C61DB767000003A7871B83A7C71BA943A2
:1049D00032D636D863EA530EB766000003A6861BAC
:1049E00083A6C61B854332D636D8639C720E854695
:1049F00036D6B766000003A6061E83A6461E32DA28
:104A000036DCB766000003A6861B83A6C61B32DE13
:104A1000B6C05256E2563A85BE85BAC2BEC4EFC091
:104A2000BFA91647A647634BA00C8246639AD400E1
:104A300063030416930600032380D4007D148504C9
:104A4000924681EA82462256B386D440850663F6B2
:104A5000C604630204149306E0022380D400924645
:104A60007D149382140081EAA2560246850633869D
:104A7000C240918E36C29246636FD4102684B6949B
:104A8000B766000003A6861B83A6C61B32C436C6C3
:104A9000631494169247B384F20082472380040083
:104AA000B387F44099BD8244A24261B53A86BE867E
:104AB00016D61ECC3AC83ECAEFC09FB6E243B252E9
:104AC00042478503D24759B53256C2563A85BE850C
:104AD00016DAEFC0FFB4D2522A87AE87D912A943A3
:104AE000D5BD3256C2563A85BE8516DAEFC05FB3E1
:104AF000D2522A87AE87FD128543C5BD4245D245B5
:104B00003A86BE86BAC2BEC4EFC08FBAEFD06FDCA1
:104B100032569376F50F1647A64711C2D5CE938627
:104B200006032380D400850435EC3A86BE860257FE
:104B3000A2473A85BE85EFC0AFB7924722570246DB
:104B40008146E53929C93383A40093075006230021
:104B5000F300930413001345F5FF114785469307AF
:104B6000803E2946E24563D3F50085E209C9E24665
:104B70008504B3C6F60293860603A38FD4FEE246ED
:104B80007D15B3E6F60236CC81467D17B3C7C70262
:104B900071FBE31405F0D64046441255B6441301A8
:104BA000810582801375F50F3AD63ED8EFD0AFD885
:104BB0003257C2577D143A86BE86BAC2BEC4EFC011
:104BC0003FA62A86AE864245D245EFC0BFEF1647C4
:104BD000A6472AC82ECA02D6725686463A85BE8590
:104BE000EFC00FAD2A87AE872DB5B767000003A7CA
:104BF000071C83A7471C15BD4245D2453A86BE8691
:104C000016D03ACC3ECEEFC0AFAAEFD08FCC9306F1
:104C10000503A300D4001375F50FEFD0CFD1624781
:104C2000F24705043A86BE86EFC09F9F2A86AE866D
:104C30004245D245EFC01FE96247F2472246B246DD
:104C40002AC82ECA3A85BE85EFC08FA62A87AE87AE
:104C500082523DBDA147E30704C48547A1B109E5E0
:104C6000B707F07F638BF500B707F0FFAD8F5D8D61
:104C7000133515003305A04082800545828013015D
:104C8000C1FDFD1522CE06D026CCAA9523800500B5
:104C90002A84B282368309C79306400263D3E600B2
:104CA0002947B3E66200014699E693060003A38F05
:104CB000D5FE0546FD159306700291C39D4693F7F8
:104CC000F60F3EC2B387C5003EC49357F741AE848A
:104CD0003EC0A247B38697406375940033E66200F6
:104CE00005E213861600A685228536C0EFD0AFDC1C
:104CF000824682507244E24436851301410282802A
:104D000082463A8616859A853ACA16C81AC6EFB000
:104D1000FF84130505031375F50F93079003FD1426
:104D20003243C242524763EFA70082462380A40069
:104D30003A8616859A853AC6EFB0CFCBAA822E83E3
:104D4000324741BF92473E95CDB71301C1FD2EC8F2
:104D50000C0806C632CA36CC3ACE3ED02EC09920B8
:104D6000B2401301410282806FF08F80511122C244
:104D700026C02A84AE8406C4A294EFF00F83631A7F
:104D80009400EFF0CF82A2401244824405453101E5
:104D9000828003A7C1A40345040005040C47EFE08B
:104DA0003FFDF1BF3111B75700009387C7D62E865C
:104DB000AA850A8506C802C03EC29122C24051019E
:104DC00082803707F8FF7D176D8F09E5B707F07F01
:104DD0006309F700B707F8FFAD8FC98F13B5170048
:104DE0008280054582805111FD1506C422C2AA9514
:104DF000238005001383F6FF9307300263F36700F7
:104E0000A946814719E693070003A38FF5FEFD1518
:104E100085471303700211C31D431377F30F9302E9
:104E200090033383F5003304B3406373B50011EA94
:104E300013061400EFD02FC82285A240124431017E
:104E40008280B377D602FD159387070393F7F70F98
:104E500063E7F2002380F5003356D602E9B7BA972C
:104E6000D5BF83A7C1A4511106C48C47F53DA2400C
:104E7000014531018280511122C206C42A840345B2
:104E80000400FD5509E92945EFE09FEEA2401244D8
:104E9000014531018280EFE0BFED0504CDB731114E
:104EA000130606FD26C41336160099641206938471
:104EB000841F22C606C8AA872E87B2942E843D4638
:104EC000B306874063428602635A8000D84390430A
:104ED000A285268536C002978246A296C2403244F9
:104EE000A244368551018280D4439043C145268532
:104EF0003AC23EC08296411412478247C9B7B727CB
:104F0000002083A7C7E7130181F2A2C9A6C786CBF9
:104F1000AA842EC832843ED802C2C24783C7070083
:104F20006381076801471306500211A00507C247B5
:104F3000BA9783C6070063890674E399C6FE19E32E
:104F4000C2471DA0D44090404245BA853EC43AC0F5
:104F5000829692470247BA973EC2A2471307500271
:104F600083C607006395E672138517009307000256
:104F700002C002C6014702CA02CE02D602D002C453
:104F80003ECC03430500930715003EC8A30361040C
:104F9000930730066309F31C63E8670C9307D0029C
:104FA0006303F30263E26706930730026301F302CF
:104FB00063E667026305035E93070002E31FF3F4F1
:104FC00085473ED619A085473ED042455DBF930731
:104FD000F00F3EC4DDBF85473ECEC5BF9307A0029C
:104FE0006301F3169307B002E307F3FE9307500241
:104FF000E315F3F2DC409040854513057104829778
:10500000924785073EC211BF9307900363EE670284
:1050100093070003637FF30E9307E002E31FF3EEB1
:10502000834615009307A0026391F612144093077C
:10503000440036C063D3060002C09306250036C87C
:105040003E8485473ECA51B7930780056303F32A20
:10505000930720066304F3369307C004E31FF3EAC3
:1050600005076207618791A09307D0066302F310DA
:1050700063EF67029307700663EF670093076006AC
:105080006373F33E93074006E319F3E8294581472C
:105090008542014351AC93079006E309F3FE636632
:1050A000F3069307C006E31AF3E6050785A0930706
:1050B00030076301F30E63EC670293070007630395
:1050C000F32293071007E30DF3F89307F006E316B6
:1050D000F3E4A2476388072E93070003A306F104B5
:1050E00085473EC4214581478142054335AC93073E
:1050F00080076303F32C9307A007E308F3EC9307FF
:105100005007E31CF3E029455DAC7D17620761871A
:105110006DBDD2473AC8639407482946AC00EFD02A
:10512000BF91834671042AC69307000342476397E1
:10513000F600825781E7930700033ECCA6473EC89E
:1051400069B51C4011043EC649B542452946AC002C
:105150003ACAEFD06FF72AC052476353050002C026
:10516000A6473EC8F9BD1C401104A303F10459B57C
:105170004255EFD02FDCAAC42AC4EFD06FDD2247FE
:10518000D4409040AA852AC03A8582961247824729
:10519000BA978DBD18409307440021C7BAC426456D
:1051A0003ECCEFD0EFDA52472A83E24721C30247D1
:1051B0006373A7003A833E8402C002CA8142930708
:1051C00000023ECCB2470247A646D98F85E7DC40B5
:1051D00090409A8536851AC08297924702439A97E3
:1051E00015B5376700001307071F4DBF3E84814286
:1051F00002C0F1B763910244A247638B073AA2470A
:105200003387F600BAC432473303F3401D8F3AC6E2
:1052100002576303073AD8409040BE8536851ACAC4
:105220003EC402971247A2475243BA973EC28247F2
:10523000130600032685B38567401ACAEFF03FC600
:1052400092475243D840AA97904026459A853EC43B
:105250001AC202971243A24782459A9763F36500E8
:105260009A853EC0B247130600022685B385B74033
:10527000EFF0FFC28247AA9771B38DC7624613074A
:1052800000036311E602D8409040BE8536851ACAF5
:105290003EC436C002971247A24752438246BA978D
:1052A0003EC281473EC4B24762462685B385674009
:1052B0001AC036CAEFF0BFBE924702433387A70039
:1052C000A247638E0734D24683A344009040BE8534
:1052D00036851AC43AC23EC082938247124722439F
:1052E0003E9735AE93078007A303F104894705472E
:1052F0003EC483477104938787FA93B71700A24689
:10530000014381CE93060003A306D10483467104B2
:1053100009432307D104894636C4B246024663F3E3
:10532000C60032C6414581429306D104B6C4635AD1
:10533000E00A8546630CD70893038400104054406C
:105340008145638C020863DA06003306C0403337B8
:10535000C000B306D040998E89422A871305D10434
:105360001A959305B0071EDA16D41AD2EFF03F91C2
:10537000D2531253A2521E845247A6475DCB054713
:105380006319E50A338767008346070013070003A4
:105390006391E60A024745C3224719C302C4014389
:1053A0000947639DE2081387F7FFBAC41307D002C9
:1053B000A38FE7FE050339B5814791B709458147BA
:1053C0008142C1B9814781422145E1B19303440043
:1053D0000C40639D0200014681460544E34FE4F61C
:1053E0001DA0930344000C4063880200854263D5EE
:1053F0000500B305B0408942E35F07FCFD56630733
:10540000D70293F5F50F3E879307D104AA862E861F
:10541000338567009305B0071EDA16D41AD2EFF071
:105420009F9CD253A25212531E84B9B7C205C181A8
:10543000D9BF2A93B5B7014302C49DB7E38402D80C
:10544000724719EF32578142E30E07D61307000265
:105450009386F7FFB6C4A38FE7FE050385429DB38D
:105460001307B002F5B7930784003EDA1C403ED222
:105470005C403ED49307D104BEC4B24799E385474C
:105480003EC6D24799E399473EC0F242639E02006E
:105490001257A257014681463A85BE851ADCEFC0F5
:1054A000EF8C62539352F5011254A2538247324754
:1054B0009306F0071306D10422859E8596C01ADC58
:1054C000EFF0AFB7D2472ADE6253864295CB26442F
:1054D0009305E00216DC22851ACAEFC01FED524385
:1054E000E252F25749CD824799E3A24781CB0505A5
:1054F000824789C7050583470500B5EF23000500EE
:1055000093077006631AF30426459305E00216C458
:10551000EFC0BFE92A84A24221C193055006EFC023
:10552000DFE8A242AA8583470400B5E791C12E8433
:10553000930600030347F4FF1305F4FF630FD7043A
:105540009306E0026303D70022852300050089C586
:1055500016C4EFC03FE7A242F24763920710B2576A
:10556000E5E3264516CEEFD0AF9E2A83525402CAF9
:1055700002C4F24281B98247FD173EC095BF22475F
:1055800041D33E941307E0022300E40026453E95F4
:10559000A3000500B5B7050479B72A8461BFFD579C
:1055A0003EC2DE404E441245BE441301810D82804E
:1055B0008257E39E07C681475247E30007CC8245E6
:1055C00063F365009A853ECAB2471306000226853A
:1055D000B385B7401AC436CCEFF07F8C9247224394
:1055E0003307F500D24799CFE24683A344009040A9
:1055F000BE8536851AC63AC43EC282939247224778
:1056000032433E978247130600032685B3856740E1
:105610003AC21AC0EFF0BF88124702432A97DC4013
:10562000904026459A853AC21AC082970243124793
:10563000B3076700C1BAA247E39307BC8547C9B661
:10564000A25712570146BE8581463A8516C4EFB06F
:10565000BFE693070002A2426351050219B7125731
:10566000A257014681463A85BE8516C4EFB0DFE4F5
:10567000A242E34805EE9307B00226479306F7FFE0
:10568000B6C4A30FF7FEF1BDE31E078AC2473EC8AA
:1056900069B00000000000000000000000000000F1
:1056A0001000000000000000017A5200017C01019E
:1056B0001B0D0200240000001800000038ABFFFFA3
:1056C0006803000000420E08448801890203780143
:1056D0000AC842C9420E00420B0000002000000030
:1056E0004000000078AEFFFF5A03000000420E0C9D
:1056F000448801890202B60AC842C9420E00420B20
:1057000080250000004B000040380000009600009B
:1057100000E1000000C201000EBDFFFF5ABCFFFF08
:1057200060BCFFFF5ABCFFFF00BDFFFF5ABCFFFF7C
:1057300060BCFFFF0EBDFFFF0EBDFFFF00BDFFFF02
:1057400060BCFFFF3EBCFFFF3EBCFFFF3EBCFFFF57
:1057500066BCFFFFA0C2FFFFA0C2FFFFB8C2FFFFF1
:105760009AC2FFFF9AC2FFFF50C3FFFFB8C2FFFFFC
:105770009AC2FFFF50C3FFFF9AC2FFFFB8C2FFFFEC
:1057800096C2FFFF96C2FFFF96C2FFFF50C3FFFF06
:1057900000010202030303030404040404040404D8
:1057A00005050505050505050505050505050505A9
:1057B0000606060606060606060606060606060689
:1057C0000606060606060606060606060606060679
:1057D0000707070707070707070707070707070759
:1057E0000707070707070707070707070707070749
:1057F0000707070707070707070707070707070739
:105800000707070707070707070707070707070728
:105810000808080808080808080808080808080808
:1058200008080808080808080808080808080808F8
:1058300008080808080808080808080808080808E8
:1058400008080808080808080808080808080808D8
:1058500008080808080808080808080808080808C8
:1058600008080808080808080808080808080808B8
:1058700008080808080808080808080808080808A8
:105880000808080808080808080808080808080898
:105890009ACEFFFF66CBFFFF70CBFFFF7ACBFFFFF7
:1058A00084CBFFFF8ECBFFFF98CBFFFFA2CBFFFF88
:1058B000ACCBFFFFC0CBFFFFCACBFFFFDECBFFFFB0
:1058C000E8CBFFFFF2CBFFFFFCCBFFFF7CCEFFFF5F
:1058D00006CCFFFF10CCFFFF1ACCFFFF24CCFFFF4C
:1058E0002ECCFFFF4CCCFFFF56CCFFFF74CCFFFF4C
:1058F0007ECCFFFF88CCFFFF92CCFFFF9CCCFFFF4C
:10590000B0CCFFFFC4CCFFFFCECCFFFFD8CCFFFF55
:10591000E2CCFFFFECCCFFFFF6CCFFFF00CDFFFF9A
:105920000ACDFFFF7CCEFFFF7CCEFFFF7CCEFFFFCA
:105930007CCEFFFF7CCEFFFF7CCEFFFF7CCEFFFF47
:105940007CCEFFFF1ECDFFFF32CDFFFF7CCEFFFFE1
:105950007CCEFFFF7CCEFFFF7CCEFFFF7CCEFFFF27
:105960007CCEFFFF7CCEFFFF7CCEFFFF7CCEFFFF17
:105970007CCEFFFF7CCEFFFF7CCEFFFF7CCEFFFF07
:105980003CCDFFFFBECDFFFF46CDFFFF50CDFFFF5B
:105990007CCEFFFF7CCEFFFF7CCEFFFF5ACDFFFF0A
:1059A0007CCEFFFF7CCEFFFF7CCEFFFF64CDFFFFF0
:1059B0007CCEFFFF7CCEFFFF78CDFFFF7CCEFFFFCC
:1059C0007CCEFFFF82CDFFFF7CCEFFFF7CCEFFFFB2
:1059D0007CCEFFFF7CCEFFFF7CCEFFFF7CCEFFFFA7
:1059E0007CCEFFFF7CCEFFFF7CCEFFFF7CCEFFFF97
:1059F0008CCDFFFF7CCEFFFF96CDFFFFA0CDFFFF3C
:105A0000AACDFFFF7CCEFFFF7CCEFFFF54CEFFFF71
:105A10007CCEFFFF7CCEFFFF7CCEFFFF7CCEFFFF66
:105A20007CCEFFFF7CCEFFFF7CCEFFFF7CCEFFFF56
:105A3000FACDFFFFB4CDFFFFC8CDFFFFD2CDFFFFF2
:105A4000DCCDFFFFE6CDFFFF7CCEFFFFF0CDFFFFFB
:105A500004CEFFFF18CEFFFF28CDFFFF60CCFFFF75
:105A600072CEFFFF38CCFFFFA6CCFFFF42CCFFFF7A
:105A7000B6CBFFFFD4CBFFFF68CEFFFF6ECDFFFF9D
:105A80007CCEFFFF0ECEFFFF6ACCFFFF2CCEFFFFC8
:105A900022CEFFFF7CCEFFFF7CCEFFFF7CCEFFFF40
:105AA0007CCEFFFF7CCEFFFFBACCFFFF7CCEFFFF9A
:105AB0007CCEFFFF7CCEFFFF14CDFFFF5ECEFFFF4D
:105AC00036CEFFFF40CEFFFF4ACEFFFF0020202052
:105AD000202020202020282828282820202020209E
:105AE000202020202020202020202020208810106E
:105AF00010101010101010101010101010040404CA
:105B00000404040404040410101010101010414187
:105B10004141414101010101010101010101010175
:105B20000101010101010101101010101010424289
:105B30004242424202020202020202020202020245
:105B400002020202020202021010101020000000E5
:105B50000000000000000000000000000000000045
:105B60000000000000000000000000000000000035
:105B70000000000000000000000000000000000025
:105B80000000000000000000000000000000000015
:105B90000000000000000000000000000000000005
:105BA00000000000000000000000000000000000F5
:105BB00000000000000000000000000000000000E5
:105BC00000000000000000000000000000000000D5
:105BD00000000050110000000A3B000014000050BB
:105BE000120000000E3B00000000006013000000E7
:105BF000123B00001400006014000000163B00007F
:105C000000040050150000001A3B0000140400506E
:105C1000160000001E3B000000040060170000009A
:105C2000223B00001404006018000000263B000026
:105C300000080050210000002A3B0000140800501A
:105C4000220000002E3B000000080060230000003E
:105C5000323B00001408006024000000363B0000C6
:105C6000000C0050250000003A3B0000140C0050CE
:105C7000260000003E3B0000000C006027000000F2
:105C8000423B0000140C006028000000463B00006E
:105C9000008002501C0000004A3B000000800260AF
:105CA0001D000000503B0000009002501E0000004C
:105CB000563B000043505520457863657074696F0A
:105CC0006E3A204E4F2E2564000000007825643A7D
:105CD00020253038780900006D6570632020203A57
:105CE00020253038780A00006D7374617475733A3A
:105CF00020253038780A000054657374696E672077
:105D000075736172742E2E2E00000000446566616A
:105D1000756C7420636F6E6669677572653A2042B0
:105D200061756472617465202D2D2D2031313532FD
:105D300030302C00506172697479202D2D2D204E49
:105D40004F4E452C0000000020576F726473697A33
:105D500065202D2D2D20382E200000000A2D202D0D
:105D6000202D55534152542072656164793F205B68
:105D7000795D20000A506C6561736520656E7465FD
:105D800072202779270000000A0A092D202D202DD6
:105D90002054657374696E67207573617274206D29
:105DA0006F64652E2E2E00000D092873796E632016
:105DB0006D6F646520293A204F7574707574206981
:105DC000732D2D2D0A0909002D202D202D205B7902
:105DD0002F6E5D20000000000A09506C656173653C
:105DE00020656E74657220277927206F7220276ED8
:105DF0002720202000000000092D202D202D5041BB
:105E0000535300000A092D202D202D205465737452
:105E10002075736172742062617564726174652E9D
:105E200000000000092D202D202D4641494C5552DF
:105E30004500000075736172745F746573745F73FD
:105E4000796E635F6D6F6465206572726F72202575
:105E5000780A000009426175647261746520697393
:105E60002025643F205B795D200000006373695F3B
:105E700075736172745F636F6E66696720657272B5
:105E80006F722025780A00000A09506C65617365FD
:105E900020656E746572202779272020200000007D
:105EA000203A4F7574707574206973202D2D2D0A5A
:105EB000090900002D202D202D5B792F6E5D20001B
:105EC0000A092D202D202D205465737420757361CF
:105ED0007274207061726974792E20285061726921
:105EE00074793A2030202D2D2D204F44442C203120
:105EF000202D2D2D204556454E2C2032202D2D2D88
:105F0000204E4F4E4529000075736172745F7465B1
:105F100073745F6261756472617465206572726F1B
:105F2000722025780A000000095061726974792096
:105F300069732025643F205B795D20000A092D20CC
:105F40002D202D2054657374207573617274206444
:105F5000617461626974732E000000000930202DA5
:105F60002D2D20574F52445F53495A455F352C0A17
:105F70000931202D2D2D20574F52445F53495A454A
:105F80005F362C0A0932202D2D2D20574F52445FA9
:105F900053495A455F372C0A0933202D2D2D2057A0
:105FA0004F52445F53495A455F3800007573617220
:105FB000745F746573745F7061726974792065725F
:105FC000726F722025780A0009576F726473697ABC
:105FD000652069732025643F205B795D2000000007
:105FE0000A092D202D202D205465737420757361AE
:105FF00072742073746F70626974732E00000000F5
:106000000930202D2D2D2055534152545F53544FAC
:10601000505F424954535F312C0A0931202D2D2DF8
:106020002055534152545F53544F505F424954538B
:106030005F322C0075736172745F746573745F6492
:1060400061746162697473206572726F7220257861
:106050000A0000000973746F7062697473206973B9
:106060002025643F205B795D20000000757361721C
:10607000745F746573745F73746F70626974732096
:106080006572726F722025780A0000000D09286180
:1060900073796E63206D6F646520293A204F7574A3
:1060A0007075742069732D2D2D0A090900000000F8
:1060B0000D09207761697474696E67207561727467
:1060C000202074726967676572206576656E742D2D
:1060D0002D2D0A090900000075736172745F7465E3
:1060E00073745F6173796E635F6D6F646520657251
:1060F000726F722025780A002D2D2D2D2D2075739D
:1061000061727420747269676765722050415353DD
:10611000000000006373695F75736172745F756E70
:10612000696E697469616C697A65206572726F72F3
:106130002025780A0000000075736172745F746531
:1061400073745F74726967676572206572726F72CB
:106150002025780A00000000746573745F75736110
:106160007274206661696C65640000006373695F26
:1061700075736172745F696E697469616C697A655F
:10618000206572726F7200005F75736172745F7464
:10619000657374206572726F722025780A000000A2
:1061A000746573745F7573617274204F4B000000E7
:1061B000000000000000E03F00000000000024405C
:1061C0009A9999999999B93F000000000000F03F11
:1061D000FF799F501344D33F000000205FA002428C
:1061E000CDCCCCCCCCCCEC3F696E66006E616E0041
:1061F000286E756C6C290000202020202020202093
:10620000202020202020202030303030303030300E
:1062100030303030303030304E6F74206F776E65F4
:10622000720000004E6F20737563682066696C65AC
:10623000206F72206469726563746F727900000068
:106240004E6F20737563682070726F63657373009F
:10625000496E7465727275707465642073797374B5
:10626000656D2063616C6C00492F4F206572726F01
:10627000720000004E6F2073756368206465766954
:106280006365206F7220616464726573730000003F
:10629000417267206C69737420746F6F206C6F6E2D
:1062A000670000004578656320666F726D61742039
:1062B0006572726F72000000536F636B65742061CA
:1062C0006C726561647920636F6E6E65637465647A
:1062D000000000004261642066696C65206E756D87
:1062E000626572004E6F206368696C6472656E004F
:1062F00044657374696E6174696F6E206164647261
:1063000065737320726571756972656400000000C1
:106310004E6F206D6F72652070726F636573736569
:10632000730000004E6F7420656E6F756768207390
:1063300070616365000000005065726D6973736978
:106340006F6E2064656E69656400000042616420C0
:106350006164647265737300446576696365206F78
:1063600072207265736F7572636520627573790050
:1063700046696C65206578697374730043726F7346
:10638000732D646576696365206C696E6B0000002F
:106390004E6F2073756368206465766963650000DD
:1063A0004E6F742061206469726563746F72790046
:1063B000486F737420697320646F776E000000006B
:1063C000436F6E6E656374696F6E20616C72656198
:1063D000647920696E2070726F6772657373000054
:1063E00049732061206469726563746F727900007B
:1063F000496E76616C696420617267756D656E7453
:10640000000000004E6574776F726B20696E7465D2
:106410007266616365206973206E6F7420636F6EAE
:106420006669677572656400436F6E6E6563746953
:106430006F6E2061626F72746564206279206E6590
:1064400074776F726B000000546F6F206D616E790E
:10645000206F70656E2066696C657320696E2073AD
:10646000797374656D00000046696C65206465731E
:1064700063726970746F722076616C756520746FD9
:106480006F206C61726765004E6F742061206368D5
:10649000617261637465722064657669636500008A
:1064A000546578742066696C6520627573790000A4
:1064B00046696C6520746F6F206C617267650000BF
:1064C000486F737420697320756E726561636861CB
:1064D000626C65004E6F207370616365206C656649
:1064E00074206F6E20646576696365004E6F74205A
:1064F000737570706F72746564000000496C6C6530
:1065000067616C207365656B000000005265616413
:106510002D6F6E6C792066696C6520737973746574
:106520006D000000546F6F206D616E79206C696E94
:106530006B73000042726F6B656E2070697065004E
:106540004D617468656D617469637320617267750C
:106550006D656E74206F7574206F6620646F6D6159
:10656000696E206F662066756E6374696F6E0000D9
:10657000526573756C7420746F6F206C61726765FF
:10658000000000004E6F206D657373616765206FBA
:1065900066206465736972656420747970650000B3
:1065A0004964656E7469666965722072656D6F769F
:1065B00065640000496C6C6567616C206279746584
:1065C0002073657175656E636500000044656164E4
:1065D0006C6F636B000000004E6574776F726B2008
:1065E000697320756E726561636861626C65000035
:1065F0004E6F206C6F636B004E6F7420612073745C
:106600007265616D0000000053747265616D2069F0
:106610006F63746C2074696D656F757400000000A1
:106620004E6F2073747265616D207265736F757241
:10663000636573005669727475616C206369726377
:1066400075697420697320676F6E650050726F748E
:106650006F636F6C206572726F720000556E6B6EA7
:106660006F776E2070726F746F636F6C0000000044
:106670004D756C7469686F7020617474656D7074A9
:1066800065640000426164206D6573736167650035
:1066900046756E6374696F6E206E6F7420696D70DD
:1066A0006C656D656E746564000000004469726518
:1066B00063746F7279206E6F7420656D70747900E9
:1066C00046696C65206F722070617468206E616D20
:1066D0006520746F6F206C6F6E670000546F6F20C1
:1066E0006D616E792073796D626F6C6963206C697E
:1066F0006E6B73004E6F20627566666572207370F4
:1067000061636520617661696C61626C650000009F
:106710004E6F20646174610041646472657373201C
:1067200066616D696C79206E6F7420737570706F1F
:10673000727465642062792070726F746F636F6C1D
:106740002066616D696C790050726F746F636F6C55
:106750002077726F6E67207479706520666F722083
:10676000736F636B65740000536F636B6574206FA8
:106770007065726174696F6E206F6E206E6F6E2D22
:10678000736F636B6574000050726F746F636F6C2E
:10679000206E6F7420617661696C61626C650000C7
:1067A000436F6E6E656374696F6E20726566757394
:1067B00065640000436F6E6E656374696F6E20726E
:1067C0006573657420627920706565720000000051
:1067D0004164647265737320616C726561647920D1
:1067E000696E20757365000041646472657373207F
:1067F0006E6F7420617661696C61626C6500000087
:10680000536F667477617265206361757365642088
:10681000636F6E6E656374696F6E2061626F727410
:1068200000000000536F636B6574206973206E6F06
:106830007420636F6E6E656374656400536F636B81
:10684000657420697320616C726561647920636F7F
:106850006E6E6563746564004F7065726174696F14
:106860006E2063616E63656C6564000053746174CF
:1068700065206E6F74207265636F76657261626CFD
:106880006500000050726576696F7573206F776ED2
:1068900065722064696564004F7065726174696F28
:1068A0006E206E6F7420737570706F7274656420E3
:1068B0006F6E20736F636B657400000056616C75BA
:1068C0006520746F6F206C6172676520666F72203F
:1068D000646566696E6564206461746120747970B2
:1068E000650000004D65737361676520746F6F20EC
:1068F0006C6F6E6700000000436F6E6E65637469B5
:106900006F6E2074696D6564206F757400000000FF
:10691000537563636573730043000000504F534920
:08692000580000002E000000E9
:10692800C0010000C0010000C0010000C00100005B
:10693800C0010000C0010000C0010000800000008C
:10694800C0010000C0010000C0010000C00100003B
:10695800C0010000C0010000C0010000C00100002B
:10696800800000008000000080000000800000001F
:10697800800000008000000080000000800000000F
:1069880080000000800000008000000080000000FF
:1069980080000000800000008000000080000000EF
:1069A80080000000800000008000000080000000DF
:1069B80080000000800000008000000080000000CF
:1069C80080000000800000008000000080000000BF
:1069D80080000000800000008000000080000000AF
:1069E800C80000200000000000000000B4030020E0
:1069F8001C040020840400200000000000000000A7
:106A0800000000000000000000000000000000007E
:106A1800000000000000000000000000000000006E
:106A2800000000000000000000000000000000005E
:106A3800000000000000000000000000000000004E
:106A4800000000000000000000000000000000003E
:106A5800000000000000000000000000000000002E
:106A6800000000000000000000000000000000001E
:106A7800000000000000000000000000000000000E
:106A880000000000000000000000000000000000FE
:106A980001000000000000000E33CDAB34126DE69B
:106AA800ECDE05000B000000000000000000000004
:106AB80000000000000000000000000000000000CE
:106AC80000000000000000000000000000000000BE
:106AD80000000000000000000000000000000000AE
:106AE800000000000000000000000000000000009E
:106E18004300000000000000000000000000000027
:106E2800000000000000000000000000000000005A
:106E38004300000000000000000000000000000007
:106E4800000000000000000000000000000000003A
:106E580043000000000000000000000000000000E7
:106E6800000000000000000000000000000000001A
:106E780043000000000000000000000000000000C7
:106E880000000000000000000000000000000000FA
:106E980043000000000000000000000000000000A7
:106EA80000000000000000000000000000000000DA
:106EB8004300000000000000000000000000000087
:106EC80000000000000000000000000000000000BA
:106ED8004300000000000000000000000000000067
:106EE800000000000000000000000000000000009A
:106EF800622C0000F42A000000000000CC5A0000B8
:106F080024690000AC600000AC600000AC600000C8
:106F1800AC600000AC600000AC600000AC60000039
:106F2800AC600000AC600000FFFFFFFFFFFFFFFF49
:106F3800FFFFFFFFFFFF00000100415343494900E5
:106F48000000000000000000000000000000000039
:106F580000000000000000000000415343494900C0
:106F68000000000000000000000000000000000019
:106F780000000000000000000000000080A81201CE
:106F88004142434445464748494A4B4C4D4E4F5071
:046F98005152000052
:00000001FF
